:020000040000FA
:060000000A128A110C280F
:10000800FE00030EF1000A08F2000A128A15E12A1E
:100018000A128A110F288313E830FD000E30FE0003
:10002800A630FF00A03084000A128A15BD220A12E9
:100038008A117030FD000730FE00F430FF00663092
:1000480084000A128A15BD220A128A1151308400CE
:1000580066300A128A159E220A128A11F801F901DD
:10006800FA0183010A128A1154297A08031D3D28CE
:100078003E286228790803194228432862280B3051
:1000880083120313BD003D08A900AC300A128A117F
:100098003E220A128A11033083120313BD003D0861
:1000A800A70001300A128A1511230A128A11AC30EE
:1000B8000A128A1550230A128A116E2823308312D5
:1000C8000313BD003D08A900AC300A128A113E2274
:1000D8000A128A1179080319722873288A287A085B
:1000E8000319772878288A287808031D7C287D2812
:1000F8008A280A128A1505250A128A110A128A15EF
:10010800EE260A128A118312031310147808031DAD
:100118008E288F2899287A08031D93289428A128C7
:100128007908031998289928A1280A128A153C24C5
:100138000A128A11831203131010831203135C0826
:100148000319A728A828F128C7014708623E840098
:10015800831380010130BD003D08C7070430470202
:10016800031CB728B828A9281930BD003D08A900E4
:100178006208BE00BF013E08AA003F08AB00630842
:10018800C000C1014008AC004108AD006408C200CD
:10019800C3014208AE004308AF006508C400C501AA
:1001A8004408B0004508B100DE300A128A113E2228
:1001B8000A128A1183120313D301D401F9010A1216
:1001C8008A153C240A128A11831203131010DC01C9
:1001D8000A128A1572250A128A1183120313590802
:1001E8000319F728F8285329C6013F30BD003D08F8
:1001F800A900AC300A128A113E220A128A110A1288
:100208008A1572250A128A11063083120313BF0059
:100218001330BE00AD30BD00BD0B1029BE0B102938
:10022800BF0B10293A3083120313BD003D08A90003
:10023800AC300A128A113E220A128A110A128A1551
:1002480072250A128A11063083120313BF00133075
:10025800BE00AD30BD00BD0B2F29BE0B2F29BF0B33
:100268002F29013083120313BD003D08C607033050
:100278004602031C40294129F9282330BD003D08C6
:10028800A900AC300A128A113E220A128A110A12F7
:100298008A1572250A128A1183120313D9010800DC
:1002A8000A128A11FA240A128A110A128A11C92614
:1002B8000A128A11F301F30A3C30F4000030F50009
:1002C800B030F6000030F70008300A128A159E2474
:1002D8000A128A110A128A15E9230A128A110A12C5
:1002E8008A15D1240A128A110A128A1572250A124D
:1002F8008A110A128A15F7220A128A118230831289
:100308000313C900DD30C800C80B8829C90B882928
:100318000A128A15A6220A128A118230831203133E
:10032800C900DD30C800C80B9729C90B97290A12E4
:100338008A156C240A128A11823083120313C900A9
:10034800DD30C800C80BA629C90BA6290A128A11D4
:1003580039200A128A110A128A11B1250A128A1141
:10036800831203132508D2002408D1000530510652
:100378000319BF29C029092A0330C8004808F30017
:1003880051080A128A15CC220A128A11A03E831239
:1003980003135207C9004908840083130008CA00E0
:1003A8004A08F70062300A128A1144260A128A1192
:1003B800193083120313C8004808A9006208C9004D
:1003C800CA014908AA004A08AB006308CB00CC015F
:1003D8004B08AC004C08AD006408CD00CE014D08B8
:1003E800AE004E08AF006508CF00D0014F08B0003E
:1003F8005008B100DE300A128A113E220A128A1110
:100408000A128A1572250A128A112D3083120313D3
:10041800C8004808A9007908C900CA014908AA0003
:100428004A08AB007808CB00CC014B08AC004C085C
:10043800AD007A08CD00CE014D08AE004E08AF00E1
:100448005D300A128A113E220A128A11831203139E
:10045800A701A70A02300A128A1511230A128A1163
:100468005D300A128A1550230A128A117D290A1250
:100478008A110C2883120313BA002A30B2003208FA
:10048800B500112B25303B0603194B2A4C2A582A54
:100498003B08B2003A088400320883138000013018
:1004A800B2003208BA07112BB6010130A907FF3094
:1004B800290784000A128A11AB270A128A11BB0085
:1004C800B200B3013308003A03196B2A112B320822
:1004D800003A0319232B643A0319762A0D3A0319B3
:1004E800762A112B3508840083130008B800840A83
:1004F8000008B9000230B2003208B507B91F852AD2
:10050800862A8F2A0330B2003208B604B809B9091E
:10051800B80A0319B90ABB01BB0A3B08B200320783
:10052800013E84000A128A11AB270A128A11B3000D
:100538000A128A11AB270A128A11B4003408390248
:10054800031DA82A330838020318AB2AAC2AAD2A9F
:10055800B72A0130B2003208BB0705303B06031D3D
:10056800B62AB72A912A360803390319BC2ABD2AA4
:10057800C82A2D30B2003A0884003208831380005C
:100588000130B2003208BA073B08B2003208B7009F
:10059800082B0A30A3000030A4003708B200320745
:1005A800013E84000A128A11AB270A128A11F3004D
:1005B8000A128A11AB270A128A11F4003908F600C8
:1005C8003808F5000A128A1560260A128A1174087A
:1005D80083120313A6007308A5000A128A15E725DB
:1005E8000A128A11831203132308303EB30033081A
:1005F800BB003B08B2003A0884003208831380002D
:100608000130B2003208BA07FF30B2003208B7072B
:10061800370A031D102B112BCD2A0130A907FF30F3
:10062800290784000A128A11AB270A128A11B2001C
:100638003208BB003B08031D222B232B462A3A080D
:100648008400831380010800F700E82B7408031D59
:100658002E2B2F2B3F2B0130F500730A352B03105F
:10066800F50DFF3E031D332B7508F600760883163B
:1006780003138504102C0130F500730A452B031071
:10068800F50DFF3E031D432B7508FF3AF60076086B
:10069800831603138505102C7408031D542B552B42
:1006A800652B0130F500730A5B2B0310F50DFF3E37
:1006B800031D592B7508F600760883160313860464
:1006C800102C0130F500730A6B2B0310F50DFF3E5B
:1006D800031D692B7508FF3AF60076088316031385
:1006E8008605102C7408031D7A2B7B2B8B2B01306D
:1006F800F500730A812B0310F50DFF3E031D7F2BB8
:100708007508F6007608831603138704102C013049
:10071800F500730A912B0310F50DFF3E031D8F2B77
:100728007508FF3AF6007608831603138705102C20
:100738007408031DA02BA12BB12B0130F500730AFF
:10074800A72B0310F50DFF3E031DA52B7508F6001A
:100758007608831603138804102C0130F500730AF9
:10076800B72B0310F50DFF3E031DB52B7508FF3A97
:10077800F6007608831603138805102C7408031DE9
:10078800C62BC72BD72B0130F500730ACD2B0310CE
:10079800F50DFF3E031DCB2B7508F6007608831672
:1007A80003138904102C0130F500730ADD2B0310A4
:1007B800F50DFF3E031DDB2B7508FF3AF6007608A2
:1007C800831603138905102C7708F500F6017608BF
:1007D800003A0319F02B102C7508413A03192A2BFB
:1007E800033A0319502B013A0319762B073A0319D8
:1007F8009C2B013A0319C22B243A03192A2B033ADA
:100808000319502B013A0319762B073A03199C2B2D
:10081800013A0319C22B102C0800F700D12C7408D8
:100828000319172C182C282C0130F500730A1E2CDC
:100838000310F50DFF3E031D1C2C7508F600760805
:10084800831203138504F92C0130F500730A2E2C4A
:100858000310F50DFF3E031D2C2C7508FF3AF6001A
:100868007608831203138505F92C740803193D2CA7
:100878003E2C4E2C0130F500730A442C0310F50D64
:10088800FF3E031D422C7508F600760883120313F9
:100898008604F92C0130F500730A542C0310F50D69
:1008A800FF3E031D522C7508FF3AF60076088312A6
:1008B80003138605F92C74080319632C642C742C13
:1008C8000130F500730A6A2C0310F50DFF3E031D75
:1008D800682C7508F6007608831203138704F92C30
:1008E8000130F500730A7A2C0310F50DFF3E031D45
:1008F800782C7508FF3AF6007608831203138705EB
:10090800F92C74080319892C8A2C9A2C0130F500CB
:10091800730A902C0310F50DFF3E031D8E2C7508ED
:10092800F6007608831203138804F92C0130F500C9
:10093800730AA02C0310F50DFF3E031D9E2C7508AD
:10094800FF3AF6007608831203138805F92C740819
:100958000319AF2CB02CC02C0130F500730AB62C4B
:100968000310F50DFF3E031DB42C7508F60076083C
:10097800831203138904F92C0130F500730AC62C7D
:100988000310F50DFF3E031DC42C7508FF3AF60051
:100998007608831203138905F92C7708F500F60108
:1009A8007608003A0319D92CF92C7508413A03192D
:1009B800132C033A0319392C013A03195F2C073A0F
:1009C8000319852C013A0319AB2C243A0319132C6B
:1009D800033A0319392C013A03195F2C073A031912
:1009E800852C013A0319AB2CF92C0800043083122A
:1009F8000313A7002708F300F401F40A64300A126D
:100A08008A1128230A128A11053083120313A700BA
:100A18002708F300F401F40A64300A128A11282323
:100A28000A128A11063083120313A7002708F3005D
:100A3800F401F40A64300A128A1128230A128A116E
:100A4800073083120313A7002708F300F401F40A00
:100A580064300A128A1128230A128A11023083127A
:100A68000313A7002708F300F401F40A65300A12FB
:100A78008A1128230A128A11F301F30AF401F40AED
:100A880065300A128A1128230A128A1130300A1294
:100A98008A152F230A128A110A30F3000030F40055
:100AA8000A128A15C2230A128A1130300A128A15CC
:100AB8002F230A128A110A30F3000030F4000A12B8
:100AC8008A15C2230A128A1130300A128A152F2376
:100AD8000A128A110A30F3000030F4000A128A154B
:100AE800C2230A128A1120300A128A152F230A12E9
:100AF8008A110A30F3000030F4000A128A15C22362
:100B08000A128A110A30F3000030F4000A128A151A
:100B1800C2230A128A1128300A128A15AB250A1232
:100B28008A110C300A128A15AB250A128A1106306E
:100B38000A128A15AB250A128A1180300A128A1500
:100B4800AB250A128A111430F3000030F4000A129F
:100B58008A15C2230A128A11080083120313A901F5
:100B6800AA01282E8312031329086A3E84008313DE
:100B78000008A6002608F300F40162300A128A1160
:100B880011240A128A1183120313A701A801012E46
:100B9800831203132708663E840083130008A60007
:100BA8002608F30064300A128A15A2270A128A114D
:100BB800003A031DE02DE12DF92D3230F30000300D
:100BC800F4000A128A159B230A128A11831203134E
:100BD8002708A6002608AB002908A6002608AC00AE
:100BE8002C08A5002B08A400432E01308312031300
:100BF800A7070318A80A0030A8072808803AFF00AA
:100C080080307F02031D0A2E04302702031C0D2E9C
:100C18000E2ECC2D8312031329086A3E84008313F9
:100C28000008A6002608F300F401F40A62300A124C
:100C38008A1111240A128A11013083120313A90799
:100C48000318AA0A0030AA072A08803AFF00803051
:100C58007F02031D312E03302902031C342E352E4A
:100C6800B62D053083120313A6002608AB00053005
:100C7800A6002608AC002C08A5002B08A400080034
:100C880083120313A4002408840083130008031D9F
:100C98004E2E4F2E712E240A84000008A20024082C
:100CA8008400220880002408023E84000008A20074
:100CB800240A8400220880002408033E84000008D7
:100CC800A2002408023E8400220880007708A200BF
:100CD8002408033E840022088000240884000008B9
:100CE800A200A3012208F3002308F4000A30F5004B
:100CF8000030F6000A128A1511240A128A1183128A
:100D08000313240A8400831300087307D7000030F4
:100D1800031801307407D8002408023E8400000834
:100D2800A200A3012208F3002308F4000A30F5000A
:100D38000030F6000A128A1511240A128A11831249
:100D480003132408033E8400831300087307D500A7
:100D58000030031801307407D6005808F40057080B
:100D6800F3003C30F5000030F6000A128A15112411
:100D78000A128A118312031355087307D300560801
:100D88000318560A7407D4000800F301F40164300C
:100D98000A128A1128230A128A11F301F30AF401AC
:100DA80064300A128A1128230A128A110230831227
:100DB8000313A0002008F300F40164300A128A111A
:100DC80028230A128A11033083120313A000200873
:100DD800F300F40164300A128A1128230A128A11D6
:100DE800F301F401F40A62300A128A1128230A1264
:100DF8008A11F301F30AF401F40A62300A128A1123
:100E080028230A128A11023083120313A000200833
:100E1800F300F401F40A62300A128A1128230A1234
:100E28008A1183120313A101A201342F8312031321
:100E380021086A3E840083130008A0002008F300FC
:100E4800F401F40A62300A128A1111240A128A1172
:100E5800013083120313A1070318A20A0030A20766
:100E68002208803AFF0080307F02031D3D2F0430A6
:100E78002102031C402F412F1A2F0800831203134D
:100E8800A101F41F482F492F502FF309F409F30A41
:100E98000319F40AA101A10AF61F532F542F5D2F3D
:100EA800F509F609F50A0319F60A0130F70077087B
:100EB800A106A201A301730874040319642F652F06
:100EC8009C2FA001A00A732F01300310F30DF40D1D
:100ED800FF3E031D692F0130F7007708A007F41FB4
:100EE800762F772F682F01300310A20DA30DFF3E38
:100EF800031D782F74087602031D842F730875026A
:100F0800031C872F882F8F2F7308F5027408031C82
:100F1800F603F602221401300310F40CF30CFF3E22
:100F2800031D902F0130A002031D9B2F9C2F772FAC
:100F380021080319A02FA12FA62FA209A309A20AED
:100F48000319A30A2308F4002208F3000800073055
:100F58008A000408840A82070034013400340A3401
:100F6800003464340034E8340334103427346434EF
:100F78006F346F34723420346934733420346F34EE
:100F8800703465346E3421340034253464342534A7
:100F980064343A34253464342534643400344D34AC
:100FA8006934633472346F34773461347634653439
:100FB80000342534643425346434253464340034EE
:100FC800253464343A3425346434003420342034ED
:100FD80020342034003444346F346E3465340034A3
:100FE80003340234013400340034013402348034D0
:040FF800C0340434C9
:10152E0001300A128A15AB250A128A1508006400CA
:10153E008001840A04060319003404069F2A03302E
:10154E00F7007708F30062300A128A15A2270A12F2
:10155E008A15003A031DB42AB52AB82AF901F90AE8
:10156E00F80108007E088A007F0882000A128A1598
:10157E00B9220A128A158000840A04087D0603190E
:10158E000034FF0A0319FE0ABD2AF600F501761C87
:10159E00D12AD22AD62A7308F4007408F50703104C
:1015AE00F30D0310F60C7608031DDE2ADF2ACE2A71
:1015BE0075080800831203130C1CE62AE72AF02A8A
:1015CE000130F0007008DB073C308F00B0308E0029
:1015DE000C1072088A00710E8300FE0E7E0E09003A
:1015EE000530F7007708F30062300A128A15A22739
:1015FE000A128A15003A031D052B062B102B7A08AA
:10160E0003190A2B0C2B01300D2B0030F700770835
:10161E00FA00080083120313AA006E08A9006D08D1
:10162E00A8002A08FF3E283E8400270883130007DF
:10163E00FF3E0A128A15AB250A128A151430F300E2
:10164E000030F4000A128A15C2230A128A15080005
:10165E0083120313A5000230A4002408F300F40142
:10166E0065300A128A1111240A128A158312031385
:10167E002508F039A4002408F30064300A128A15F4
:10168E0039250A128A150A128A1575230A128A1525
:10169E00080083120313AA00A801A901692B2808C8
:1016AE002A07A7002708840000080A128A15232695
:1016BE000A128A15013083120313A8070318A90A08
:1016CE000030A90728082A07A700270884008313DB
:1016DE000008031D732B742B562B0800F301F30A1D
:1016EE00F401F40A65300A128A1111240A128A15BD
:1016FE000130F3000030F4000A128A15C2230A12D8
:10170E008A15F301F30AF40165300A128A111124C5
:10171E000A128A150130F3000030F4000A128A15FD
:10172E00C2230A128A15080083120313A001A10115
:10173E00B72BA201A3010130A2070318A30A0030A0
:10174E00A30703302302E83003192202031CB02B37
:10175E00B12BA22B0130A0070318A10A0030A1075C
:10176E0074082102031DBD2B73082002031CC02B1D
:10177E00C12BA02B080083120313A001A101DE2BA5
:10178E00A201A3010130A2070318A30A0030A30788
:10179E0000302302323003192202031CD72BD82B20
:1017AE00C92B0130A0070318A10A0030A107740845
:1017BE002102031DE42B73082002031CE72BE82BE8
:1017CE00C72B0800033083120313A0002008F30078
:1017DE00F40162300A128A1128230A128A15043083
:1017EE0083120313A0002008F300F40162300A12E2
:1017FE008A1128230A128A15053083120313A000BA
:10180E002008F300F40162300A128A1128230A120A
:10181E008A15080083120313A001A101731C182C52
:10182E00192C212C750883120313A0070318A10A83
:10183E007608A10701300310F50DF60DFF3E031DCE
:10184E00222C01300310F40CF30CFF3E031D292C47
:10185E0073087404031D342C352C152C83120313BA
:10186E002108F4002008F30008000230831203134D
:10187E00A0002008F300F40163300A128A1111242B
:10188E000A128A15053083120313A0002008F300F4
:10189E00F40163300A128A1111240A128A15F30117
:1018AE00F40163300A128A1111240A128A150730C4
:1018BE0083120313A0002008F300F40162300A1211
:1018CE008A1111240A128A1508000430F7007708CD
:1018DE00F30062300A128A15A2270A128A15003AFC
:1018EE00031D7A2C7B2C832C7808031D7F2C802CD7
:1018FE00832CF801F80A9D2C0430F7007708F300CA
:10190E0062300A128A15A2270A128A15003A031D9E
:10191E00912C922C9D2C7803031D962C972C9D2C8C
:10192E00F801F90183120313DC01DC0A08008312AB
:10193E000313A200AB2C10309000C12C203090006D
:10194E00C12C30309000C12C2208A000A10121082A
:10195E00003A0319B32CC12C2008013A0319C12CEB
:10196E00033A0319A22C063A0319A52C0C3A0319B3
:10197E00A82CC12C73080319C52CC62CCB2C83168E
:10198E0003130C148B170B17740883128F00760831
:10199E008E000800023083120313A0002008F3000B
:1019AE00F401F40A63300A128A1128230A128A15E6
:1019BE00053083120313A0002008F300F401F40A8B
:1019CE0063300A128A1128230A128A15F301F401D0
:1019DE00F40A63300A128A1128230A128A15073074
:1019EE0083120313A0002008F300F401F40A6230FE
:1019FE000A128A1128230A128A150800023083124D
:101A0E000313A0002008F300F401F40A63300A1255
:101A1E008A1111240A128A15053083120313A000AD
:101A2E002008F300F401F40A63300A128A1111241B
:101A3E000A128A15F301F401F40A63300A128A11AC
:101A4E0011240A128A15073083120313A0002008EE
:101A5E00F300F401F40A62300A128A1111240A12F8
:101A6E008A150800F6004F2D7308831203138500A4
:101A7E00712D7308831203138600712D7308831260
:101A8E0003138700712D7308831203138800712DC1
:101A9E007608F400F5017508003A0319572D712DDB
:101AAE007408413A03193B2D033A0319402D013AAC
:101ABE000319452D073A03194A2D253A03193B2DD3
:101ACE00033A0319402D013A0319452D073A03191C
:101ADE004A2D712D08000A128A1597220A128A15AC
:101AEE00073083120313AB002B08A70002300A1233
:101AFE008A1511230A128A15DE300A128A1550230E
:101B0E000A128A15053083120313AB002B08A700A7
:101B1E0001300A128A1511230A128A15AC300A12E4
:101B2E008A1550230A128A15023083120313AD0050
:101B3E000430AC00B930AB00AB0BA32DAC0BA32D16
:101B4E00AD0BA32DAA2D080083120313A60002309D
:101B5E00A4002408F300F40165300A128A1111243E
:101B6E000A128A15831203132608F039A4002408DA
:101B7E00F30064300A128A1539250A128A150A12E0
:101B8E008A1575230A128A158312031326080F3934
:101B9E00A40003300310A40DFF3E031DD12D03102E
:101BAE00240DA5002508F30064300A128A15392584
:101BBE000A128A150A128A1575230A128A15080046
:101BCE0083120313230824040319EE2DEF2D1E2E6A
:101BDE00A801A80AFD2D01300310A30DA40DFF3E90
:101BEE00031DF32D0130A7002708A807A41F002E00
:101BFE00012EF22D24082602031D072E230825028E
:101C0E00031C0A2E0B2E112E2308A5022408031CDA
:101C1E00A603A60201300310A40CA30CFF3E031D65
:101C2E00122E0130A802031D1D2E1E2E012E260877
:101C3E00A4002508A300080083120313A600023097
:101C4E00A4002408F300F401F40A65300A128A1184
:101C5E0011240A128A15831203132608F039A400E0
:101C6E002408F30064300A128A1539250A128A15DF
:101C7E000A128A1575230A128A158312031326086F
:101C8E000F39A40003300310A40DFF3E031D4A2E8E
:101C9E000310240DA5002508F30064300A128A15DE
:101CAE0039250A128A150A128A1575230A128A15FF
:101CBE00080083120313A101A2017308740403190F
:101CCE00692E6A2EA12EA001A00A782E01300310D3
:101CDE00F30DF40DFF3E031D6E2E0130F700770855
:101CEE00A007F41F7B2E7C2E6D2E01300310A10D4C
:101CFE00A20DFF3E031D7D2E74087602031D892E54
:101D0E0073087502031C8C2E8D2E942E7308F5020B
:101D1E007408031CF603F602211401300310F40CB0
:101D2E00F30CFF3E031D952E0130A002031DA02EC5
:101D3E00A12E7C2E2208F4002108F30008000134A5
:101D4E0002340334043405340634073408340934B9
:101D5E006134003468344D346934633472346F3412
:101D6E007734613476346534003400340034003412
:101D7E0000340034003400340034003400340034B5
:101D8E0000340034003400340034003400340034A5
:101D9E000034003400340034003400340034003495
:101DAE000034003400340034003400340034003485
:101DBE0000340034003400340034303430343A34DB
:101DCE0030343034003400340034003400348312A4
:101DDE00031353085404031DF52EF62EFA2EDC01C0
:101DEE00DC0AD901D90A05305B02031CFF2E002F35
:101DFE000C2FFF30D3070318D40AFF30D407DB01B2
:101E0E000A128A1572250A128A153C30F300003028
:101E1E00F400831203135408F6005308F5000A1257
:101E2E008A1142270A128A15740883120313D800E6
:101E3E007308D7003C30F3000030F4005408F6006D
:101E4E005308F5000A128A1547270A128A157408D4
:101E5E0083120313D6007308D5003430BC003C083F
:101E6E00A9005808AB005708AA005608AD0055083F
:101E7E00AC00DE300A128A113E220A128A150800C0
:101E8E0083120313A101F61F4D2F4E2F552FF50967
:101E9E00F609F50A0319F60AA101A10AF41F582F33
:101EAE00592F5E2FF309F409F30A0319F40A730884
:101EBE0074040319632F642F932FA001A00A722FAD
:101ECE0001300310F30DF40DFF3E031D682F01309A
:101EDE00F7007708A007F41F752F762F672F740869
:101EEE007602031D7C2F73087502031C7F2F802F33
:101EFE00862F7308F5027408031CF603F6020130F0
:101F0E000310F40CF30CFF3E031D872F0130A002CB
:101F1E00031D922F932F762F21080319972F982F99
:101F2E009D2FF509F609F50A0319F60A7608F4004D
:101F3E007508F3000800F600DC2F0130F400730A78
:101F4E00AA2F0310F40DFF3E031DA82F7408831251
:101F5E0003130505FF2F0130F400730AB82F031089
:101F6E00F40DFF3E031DB62F7408831203130605EE
:101F7E00FF2F0130F400730AC62F0310F40DFF3E3D
:101F8E00031DC42F7408831203130705FF2F01309E
:101F9E00F400730AD42F0310F40DFF3E031DD22F4D
:101FAE007408831203130805FF2F7608F400F50159
:101FBE007508003A0319E42FFE2F7408413A0319ED
:101FCE00A42F033A0319B22F013A0319C02F073A6F
:101FDE000319CE2F253A0319A42F033A0319B22F52
:101FEE00013A0319C02F073A0319CE2FFE2F4E3098
:021FFE000800D9
:02400E00BA3FB7
:00000001FF
